{
  "contractName": "CustodyToken",
  "abi": [
    {
      "constant": true,
      "inputs": [],
      "name": "totalSupply",
      "outputs": [
        {
          "name": "",
          "type": "uint256"
        }
      ],
      "payable": false,
      "stateMutability": "view",
      "type": "function"
    },
    {
      "constant": true,
      "inputs": [
        {
          "name": "_tokenId",
          "type": "uint256"
        }
      ],
      "name": "approvedFor",
      "outputs": [
        {
          "name": "",
          "type": "address"
        }
      ],
      "payable": false,
      "stateMutability": "view",
      "type": "function"
    },
    {
      "constant": true,
      "inputs": [
        {
          "name": "_owner",
          "type": "address"
        }
      ],
      "name": "tokensOf",
      "outputs": [
        {
          "name": "",
          "type": "uint256[]"
        }
      ],
      "payable": false,
      "stateMutability": "view",
      "type": "function"
    },
    {
      "constant": true,
      "inputs": [
        {
          "name": "_tokenId",
          "type": "uint256"
        }
      ],
      "name": "ownerOf",
      "outputs": [
        {
          "name": "",
          "type": "address"
        }
      ],
      "payable": false,
      "stateMutability": "view",
      "type": "function"
    },
    {
      "constant": true,
      "inputs": [
        {
          "name": "_owner",
          "type": "address"
        }
      ],
      "name": "balanceOf",
      "outputs": [
        {
          "name": "",
          "type": "uint256"
        }
      ],
      "payable": false,
      "stateMutability": "view",
      "type": "function"
    },
    {
      "constant": false,
      "inputs": [
        {
          "name": "_to",
          "type": "address"
        },
        {
          "name": "_tokenId",
          "type": "uint256"
        }
      ],
      "name": "transfer",
      "outputs": [],
      "payable": false,
      "stateMutability": "nonpayable",
      "type": "function"
    },
    {
      "constant": false,
      "inputs": [
        {
          "name": "_tokenId",
          "type": "uint256"
        }
      ],
      "name": "takeOwnership",
      "outputs": [],
      "payable": false,
      "stateMutability": "nonpayable",
      "type": "function"
    },
    {
      "anonymous": false,
      "inputs": [
        {
          "indexed": true,
          "name": "_from",
          "type": "address"
        },
        {
          "indexed": true,
          "name": "_to",
          "type": "address"
        },
        {
          "indexed": false,
          "name": "_tokenId",
          "type": "uint256"
        }
      ],
      "name": "Transfer",
      "type": "event"
    },
    {
      "anonymous": false,
      "inputs": [
        {
          "indexed": true,
          "name": "_owner",
          "type": "address"
        },
        {
          "indexed": true,
          "name": "_approved",
          "type": "address"
        },
        {
          "indexed": false,
          "name": "_tokenId",
          "type": "uint256"
        }
      ],
      "name": "Approval",
      "type": "event"
    },
    {
      "constant": true,
      "inputs": [],
      "name": "name",
      "outputs": [
        {
          "name": "",
          "type": "string"
        }
      ],
      "payable": false,
      "stateMutability": "view",
      "type": "function"
    },
    {
      "constant": false,
      "inputs": [
        {
          "name": "_tokenId",
          "type": "uint256"
        }
      ],
      "name": "startCustody",
      "outputs": [],
      "payable": false,
      "stateMutability": "nonpayable",
      "type": "function"
    },
    {
      "constant": false,
      "inputs": [],
      "name": "endCustody",
      "outputs": [],
      "payable": false,
      "stateMutability": "nonpayable",
      "type": "function"
    },
    {
      "constant": false,
      "inputs": [],
      "name": "getWhiteList",
      "outputs": [
        {
          "components": [
            {
              "name": "_address",
              "type": "address"
            },
            {
              "name": "validTokens",
              "type": "uint256[]"
            }
          ],
          "name": "",
          "type": "tuple[]"
        }
      ],
      "payable": false,
      "stateMutability": "nonpayable",
      "type": "function"
    },
    {
      "constant": false,
      "inputs": [
        {
          "name": "_to",
          "type": "address"
        },
        {
          "name": "_tokenId",
          "type": "uint256"
        }
      ],
      "name": "approve",
      "outputs": [],
      "payable": false,
      "stateMutability": "nonpayable",
      "type": "function"
    },
    {
      "constant": true,
      "inputs": [
        {
          "name": "approved",
          "type": "bool"
        },
        {
          "name": "_tokenId",
          "type": "uint256"
        }
      ],
      "name": "approve",
      "outputs": [],
      "payable": false,
      "stateMutability": "view",
      "type": "function"
    }
  ],
  "bytecode": "0x60606040526001600555341561001457600080fd5b61123b806100236000396000f3006060604052600436106100c5576000357c0100000000000000000000000000000000000000000000000000000000900463ffffffff16806306fdde03146100ca578063095ea7b31461015857806309a9d76c1461019a57806318160ddd146101ff5780631c8551d8146102285780632a6dd48f146102565780635a3f2672146102b95780636352211e14610347578063642b8c14146103aa57806370a08231146103bf578063a9059cbb1461040c578063b2e6ceeb1461044e578063cd3dd0d614610471575b600080fd5b34156100d557600080fd5b6100dd610494565b6040518080602001828103825283818151815260200191508051906020019080838360005b8381101561011d578082015181840152602081019050610102565b50505050905090810190601f16801561014a5780820380516001836020036101000a031916815260200191505b509250505060405180910390f35b341561016357600080fd5b610198600480803573ffffffffffffffffffffffffffffffffffffffff169060200190919080359060200190919050506104d7565b005b34156101a557600080fd5b6101ad61066a565b60405180806020018281038252838181518152602001915080516000925b818410156101ee57828490602001906020020151815260200192600101926101cb565b925050509250505060405180910390f35b341561020a57600080fd5b61021261077d565b6040518082815260200191505060405180910390f35b341561023357600080fd5b61025460048080351515906020019091908035906020019091905050610786565b005b341561026157600080fd5b61027760048080359060200190919050506107da565b604051808273ffffffffffffffffffffffffffffffffffffffff1673ffffffffffffffffffffffffffffffffffffffff16815260200191505060405180910390f35b34156102c457600080fd5b6102f0600480803573ffffffffffffffffffffffffffffffffffffffff16906020019091905050610817565b6040518080602001828103825283818151815260200191508051906020019060200280838360005b83811015610333578082015181840152602081019050610318565b505050509050019250505060405180910390f35b341561035257600080fd5b61036860048080359060200190919050506108b4565b604051808273ffffffffffffffffffffffffffffffffffffffff1673ffffffffffffffffffffffffffffffffffffffff16815260200191505060405180910390f35b34156103b557600080fd5b6103bd610932565b005b34156103ca57600080fd5b6103f6600480803573ffffffffffffffffffffffffffffffffffffffff16906020019091905050610934565b6040518082815260200191505060405180910390f35b341561041757600080fd5b61044c600480803573ffffffffffffffffffffffffffffffffffffffff16906020019091908035906020019091905050610980565b005b341561045957600080fd5b61046f60048080359060200190919050506109d3565b005b341561047c57600080fd5b61049260048080359060200190919050506109fe565b005b61049c611156565b6040805190810160405280600c81526020017f437573746f6479546f6b656e0000000000000000000000000000000000000000815250905090565b6000813373ffffffffffffffffffffffffffffffffffffffff166104fa826108b4565b73ffffffffffffffffffffffffffffffffffffffff1614151561051c57600080fd5b610525836108b4565b91508173ffffffffffffffffffffffffffffffffffffffff168473ffffffffffffffffffffffffffffffffffffffff161415151561056257600080fd5b600061056d846107da565b73ffffffffffffffffffffffffffffffffffffffff161415806105a7575060008473ffffffffffffffffffffffffffffffffffffffff1614155b1561066457836002600085815260200190815260200160002060006101000a81548173ffffffffffffffffffffffffffffffffffffffff021916908373ffffffffffffffffffffffffffffffffffffffff1602179055508373ffffffffffffffffffffffffffffffffffffffff168273ffffffffffffffffffffffffffffffffffffffff167f8c5be1e5ebec7d5bd14f71427d1e84f3dd0314c0f7b2291e5b200ac8c7c3b925856040518082815260200191505060405180910390a35b50505050565b61067261116a565b6006805480602002602001604051908101604052809291908181526020016000905b8282101561077457838290600052602060002090600202016040805190810160405290816000820160009054906101000a900473ffffffffffffffffffffffffffffffffffffffff1673ffffffffffffffffffffffffffffffffffffffff1673ffffffffffffffffffffffffffffffffffffffff1681526020016001820180548060200260200160405190810160405280929190818152602001828054801561075c57602002820191906000526020600020905b815481526020019060010190808311610748575b50505050508152505081526020019060010190610694565b50505050905090565b60008054905090565b803373ffffffffffffffffffffffffffffffffffffffff166107a7826108b4565b73ffffffffffffffffffffffffffffffffffffffff161415156107c957600080fd5b8215156107d557600080fd5b505050565b60006002600083815260200190815260200160002060009054906101000a900473ffffffffffffffffffffffffffffffffffffffff169050919050565b61081f61117e565b600360008373ffffffffffffffffffffffffffffffffffffffff1673ffffffffffffffffffffffffffffffffffffffff1681526020019081526020016000208054806020026020016040519081016040528092919081815260200182805480156108a857602002820191906000526020600020905b815481526020019060010190808311610894575b50505050509050919050565b6000806001600084815260200190815260200160002060009054906101000a900473ffffffffffffffffffffffffffffffffffffffff169050600073ffffffffffffffffffffffffffffffffffffffff168173ffffffffffffffffffffffffffffffffffffffff161415151561092957600080fd5b80915050919050565b565b6000600360008373ffffffffffffffffffffffffffffffffffffffff1673ffffffffffffffffffffffffffffffffffffffff168152602001908152602001600020805490509050919050565b803373ffffffffffffffffffffffffffffffffffffffff166109a1826108b4565b73ffffffffffffffffffffffffffffffffffffffff161415156109c357600080fd5b6109ce338484610a1f565b505050565b6109dd3382610b68565b15156109e857600080fd5b6109fb6109f4826108b4565b3383610a1f565b50565b600560008154809291906001019190505550610a1c33600554610ba9565b50565b600073ffffffffffffffffffffffffffffffffffffffff168273ffffffffffffffffffffffffffffffffffffffff1614151515610a5b57600080fd5b610a64816108b4565b73ffffffffffffffffffffffffffffffffffffffff168273ffffffffffffffffffffffffffffffffffffffff1614151515610a9e57600080fd5b8273ffffffffffffffffffffffffffffffffffffffff16610abe826108b4565b73ffffffffffffffffffffffffffffffffffffffff16141515610ae057600080fd5b610aea8382610c43565b610af48382610d2c565b610afe8282610fb4565b8173ffffffffffffffffffffffffffffffffffffffff168373ffffffffffffffffffffffffffffffffffffffff167fddf252ad1be2c89b69c2b068fc378daa952ba7f163c4a11628f55a4df523b3ef836040518082815260200191505060405180910390a3505050565b60008273ffffffffffffffffffffffffffffffffffffffff16610b8a836107da565b73ffffffffffffffffffffffffffffffffffffffff1614905092915050565b600073ffffffffffffffffffffffffffffffffffffffff168273ffffffffffffffffffffffffffffffffffffffff1614151515610be557600080fd5b610bef8282610fb4565b8173ffffffffffffffffffffffffffffffffffffffff1660007fddf252ad1be2c89b69c2b068fc378daa952ba7f163c4a11628f55a4df523b3ef836040518082815260200191505060405180910390a35050565b8173ffffffffffffffffffffffffffffffffffffffff16610c63826108b4565b73ffffffffffffffffffffffffffffffffffffffff16141515610c8557600080fd5b60006002600083815260200190815260200160002060006101000a81548173ffffffffffffffffffffffffffffffffffffffff021916908373ffffffffffffffffffffffffffffffffffffffff16021790555060008273ffffffffffffffffffffffffffffffffffffffff167f8c5be1e5ebec7d5bd14f71427d1e84f3dd0314c0f7b2291e5b200ac8c7c3b925836040518082815260200191505060405180910390a35050565b60008060008473ffffffffffffffffffffffffffffffffffffffff16610d51856108b4565b73ffffffffffffffffffffffffffffffffffffffff16141515610d7357600080fd5b60046000858152602001908152602001600020549250610da56001610d9787610934565b61111f90919063ffffffff16565b9150600360008673ffffffffffffffffffffffffffffffffffffffff1673ffffffffffffffffffffffffffffffffffffffff16815260200190815260200160002082815481101515610df357fe5b906000526020600020900154905060006001600086815260200190815260200160002060006101000a81548173ffffffffffffffffffffffffffffffffffffffff021916908373ffffffffffffffffffffffffffffffffffffffff16021790555080600360008773ffffffffffffffffffffffffffffffffffffffff1673ffffffffffffffffffffffffffffffffffffffff16815260200190815260200160002084815481101515610ea157fe5b9060005260206000209001819055506000600360008773ffffffffffffffffffffffffffffffffffffffff1673ffffffffffffffffffffffffffffffffffffffff16815260200190815260200160002083815481101515610efe57fe5b906000526020600020900181905550600360008673ffffffffffffffffffffffffffffffffffffffff1673ffffffffffffffffffffffffffffffffffffffff168152602001908152602001600020805480919060019003610f5f9190611192565b5060006004600086815260200190815260200160002081905550826004600083815260200190815260200160002081905550610fa7600160005461111f90919063ffffffff16565b6000819055505050505050565b60008073ffffffffffffffffffffffffffffffffffffffff166001600084815260200190815260200160002060009054906101000a900473ffffffffffffffffffffffffffffffffffffffff1673ffffffffffffffffffffffffffffffffffffffff1614151561102357600080fd5b826001600084815260200190815260200160002060006101000a81548173ffffffffffffffffffffffffffffffffffffffff021916908373ffffffffffffffffffffffffffffffffffffffff16021790555061107e83610934565b9050600360008473ffffffffffffffffffffffffffffffffffffffff1673ffffffffffffffffffffffffffffffffffffffff16815260200190815260200160002080548060010182816110d191906111be565b916000526020600020900160008490919091505550806004600084815260200190815260200160002081905550611114600160005461113890919063ffffffff16565b600081905550505050565b600082821115151561112d57fe5b818303905092915050565b600080828401905083811015151561114c57fe5b8091505092915050565b602060405190810160405280600081525090565b602060405190810160405280600081525090565b602060405190810160405280600081525090565b8154818355818115116111b9578183600052602060002091820191016111b891906111ea565b5b505050565b8154818355818115116111e5578183600052602060002091820191016111e491906111ea565b5b505050565b61120c91905b808211156112085760008160009055506001016111f0565b5090565b905600a165627a7a72305820cb35ac6a4b278e681c40a22ab6afee4b2f38a2e1f2a53215d358e40f23aad9640029",
  "source": "pragma solidity ^0.4.19;\nimport 'zeppelin-solidity/contracts/token/ERC721/ERC721Token.sol';\n\ncontract CustodyToken is ERC721Token {\n\n  string constant private tokenName = \"CustodyToken\";\n  string constant private tokenSymbol = \"CTD\";\n  uint256 private tokenId = 1;\n\n  function name() public constant returns (string) {\n    return tokenName;\n  }\n\n  // CustodyToken whitelisted addresses\n  struct WhiteList {\n    address _address;\n    uint256[] validTokens;\n  }\n  WhiteList[] whiteList;\n\n  // Mint token for trustee, add to whitelist validTokens (return token id?)\n  function startCustody(uint256 _tokenId) public {\n    tokenId++;\n    _mint(msg.sender, tokenId);\n  }\n\n  // Burn token for trustee, remove from whitelist validTokens\n  function endCustody() public {\n  }\n\n  // Add OR remove address(es) in whitelist\n  // TODO: Add remove capability\n  function setWhiteList(address[] _list) internal {\n    for (uint i=0; i<_list.length-1; i++) {\n      uint256[] memory tokens;\n      WhiteList memory tmp = WhiteList({\n        _address: _list[i],\n        validTokens: tokens\n       });\n      whiteList.push(tmp);\n    }\n  }\n\n  // Get whitelist\n  function getWhiteList() public returns (WhiteList[]) {\n    return whiteList;\n  }\n\n  function approve(bool approved, uint256 _tokenId) public view onlyOwnerOf(_tokenId) {\n    require(approved);\n  }\n}\n",
  "sourcePath": "/Users/gcperrin/dev/eth_denver/eth_denver-contracts/contracts/CustodyToken.sol",
  "compiler": {
    "name": "solc",
    "version": "0.4.19+commit.c4cbbb05.Emscripten.clang"
  },
  "schemaVersion": "1.0.1",
  "updatedAt": "2018-02-17T11:55:04.999Z"
}