{
  "contractName": "Token",
  "abi": [
    {
      "constant": true,
      "inputs": [],
      "name": "totalSupply",
      "outputs": [
        {
          "name": "",
          "type": "uint256"
        }
      ],
      "payable": false,
      "stateMutability": "view",
      "type": "function"
    },
    {
      "constant": true,
      "inputs": [
        {
          "name": "_tokenId",
          "type": "uint256"
        }
      ],
      "name": "approvedFor",
      "outputs": [
        {
          "name": "",
          "type": "address"
        }
      ],
      "payable": false,
      "stateMutability": "view",
      "type": "function"
    },
    {
      "constant": true,
      "inputs": [
        {
          "name": "_owner",
          "type": "address"
        }
      ],
      "name": "tokensOf",
      "outputs": [
        {
          "name": "",
          "type": "uint256[]"
        }
      ],
      "payable": false,
      "stateMutability": "view",
      "type": "function"
    },
    {
      "constant": true,
      "inputs": [
        {
          "name": "_tokenId",
          "type": "uint256"
        }
      ],
      "name": "ownerOf",
      "outputs": [
        {
          "name": "",
          "type": "address"
        }
      ],
      "payable": false,
      "stateMutability": "view",
      "type": "function"
    },
    {
      "constant": true,
      "inputs": [
        {
          "name": "_owner",
          "type": "address"
        }
      ],
      "name": "balanceOf",
      "outputs": [
        {
          "name": "",
          "type": "uint256"
        }
      ],
      "payable": false,
      "stateMutability": "view",
      "type": "function"
    },
    {
      "constant": false,
      "inputs": [
        {
          "name": "_to",
          "type": "address"
        },
        {
          "name": "_tokenId",
          "type": "uint256"
        }
      ],
      "name": "transfer",
      "outputs": [],
      "payable": false,
      "stateMutability": "nonpayable",
      "type": "function"
    },
    {
      "constant": false,
      "inputs": [
        {
          "name": "_tokenId",
          "type": "uint256"
        }
      ],
      "name": "takeOwnership",
      "outputs": [],
      "payable": false,
      "stateMutability": "nonpayable",
      "type": "function"
    },
    {
      "anonymous": false,
      "inputs": [
        {
          "indexed": true,
          "name": "_from",
          "type": "address"
        },
        {
          "indexed": true,
          "name": "_to",
          "type": "address"
        },
        {
          "indexed": false,
          "name": "_tokenId",
          "type": "uint256"
        }
      ],
      "name": "Transfer",
      "type": "event"
    },
    {
      "anonymous": false,
      "inputs": [
        {
          "indexed": true,
          "name": "_owner",
          "type": "address"
        },
        {
          "indexed": true,
          "name": "_approved",
          "type": "address"
        },
        {
          "indexed": false,
          "name": "_tokenId",
          "type": "uint256"
        }
      ],
      "name": "Approval",
      "type": "event"
    },
    {
      "constant": true,
      "inputs": [],
      "name": "name",
      "outputs": [
        {
          "name": "",
          "type": "string"
        }
      ],
      "payable": false,
      "stateMutability": "view",
      "type": "function"
    },
    {
      "constant": false,
      "inputs": [
        {
          "name": "_target",
          "type": "address"
        },
        {
          "name": "_tokenId",
          "type": "uint256"
        }
      ],
      "name": "startCustody",
      "outputs": [],
      "payable": false,
      "stateMutability": "nonpayable",
      "type": "function"
    },
    {
      "constant": false,
      "inputs": [
        {
          "name": "_to",
          "type": "address"
        },
        {
          "name": "_tokenId",
          "type": "uint256"
        }
      ],
      "name": "approve",
      "outputs": [],
      "payable": false,
      "stateMutability": "nonpayable",
      "type": "function"
    },
    {
      "constant": false,
      "inputs": [
        {
          "name": "approved",
          "type": "bool"
        },
        {
          "name": "_tokenId",
          "type": "uint256"
        }
      ],
      "name": "approve",
      "outputs": [],
      "payable": false,
      "stateMutability": "nonpayable",
      "type": "function"
    }
  ],
  "bytecode": "0x6060604052341561000f57600080fd5b61108e8061001e6000396000f3006060604052600436106100af576000357c0100000000000000000000000000000000000000000000000000000000900463ffffffff16806306fdde03146100b4578063095ea7b31461014257806318160ddd146101845780631c8551d8146101ad5780632a6dd48f146101db5780635a3f26721461023e5780636352211e146102cc5780636a3274931461032f57806370a0823114610371578063a9059cbb146103be578063b2e6ceeb14610400575b600080fd5b34156100bf57600080fd5b6100c7610423565b6040518080602001828103825283818151815260200191508051906020019080838360005b838110156101075780820151818401526020810190506100ec565b50505050905090810190601f1680156101345780820380516001836020036101000a031916815260200191505b509250505060405180910390f35b341561014d57600080fd5b610182600480803573ffffffffffffffffffffffffffffffffffffffff16906020019091908035906020019091905050610466565b005b341561018f57600080fd5b6101976105f9565b6040518082815260200191505060405180910390f35b34156101b857600080fd5b6101d960048080351515906020019091908035906020019091905050610602565b005b34156101e657600080fd5b6101fc6004808035906020019091905050610656565b604051808273ffffffffffffffffffffffffffffffffffffffff1673ffffffffffffffffffffffffffffffffffffffff16815260200191505060405180910390f35b341561024957600080fd5b610275600480803573ffffffffffffffffffffffffffffffffffffffff16906020019091905050610693565b6040518080602001828103825283818151815260200191508051906020019060200280838360005b838110156102b857808201518184015260208101905061029d565b505050509050019250505060405180910390f35b34156102d757600080fd5b6102ed6004808035906020019091905050610730565b604051808273ffffffffffffffffffffffffffffffffffffffff1673ffffffffffffffffffffffffffffffffffffffff16815260200191505060405180910390f35b341561033a57600080fd5b61036f600480803573ffffffffffffffffffffffffffffffffffffffff169060200190919080359060200190919050506107ae565b005b341561037c57600080fd5b6103a8600480803573ffffffffffffffffffffffffffffffffffffffff169060200190919050506107bc565b6040518082815260200191505060405180910390f35b34156103c957600080fd5b6103fe600480803573ffffffffffffffffffffffffffffffffffffffff16906020019091908035906020019091905050610808565b005b341561040b57600080fd5b610421600480803590602001909190505061085b565b005b61042b610fbd565b6040805190810160405280600f81526020017f4d792045524337323120546f6b656e0000000000000000000000000000000000815250905090565b6000813373ffffffffffffffffffffffffffffffffffffffff1661048982610730565b73ffffffffffffffffffffffffffffffffffffffff161415156104ab57600080fd5b6104b483610730565b91508173ffffffffffffffffffffffffffffffffffffffff168473ffffffffffffffffffffffffffffffffffffffff16141515156104f157600080fd5b60006104fc84610656565b73ffffffffffffffffffffffffffffffffffffffff16141580610536575060008473ffffffffffffffffffffffffffffffffffffffff1614155b156105f357836002600085815260200190815260200160002060006101000a81548173ffffffffffffffffffffffffffffffffffffffff021916908373ffffffffffffffffffffffffffffffffffffffff1602179055508373ffffffffffffffffffffffffffffffffffffffff168273ffffffffffffffffffffffffffffffffffffffff167f8c5be1e5ebec7d5bd14f71427d1e84f3dd0314c0f7b2291e5b200ac8c7c3b925856040518082815260200191505060405180910390a35b50505050565b60008054905090565b803373ffffffffffffffffffffffffffffffffffffffff1661062382610730565b73ffffffffffffffffffffffffffffffffffffffff1614151561064557600080fd5b82151561065157600080fd5b505050565b60006002600083815260200190815260200160002060009054906101000a900473ffffffffffffffffffffffffffffffffffffffff169050919050565b61069b610fd1565b600360008373ffffffffffffffffffffffffffffffffffffffff1673ffffffffffffffffffffffffffffffffffffffff16815260200190815260200160002080548060200260200160405190810160405280929190818152602001828054801561072457602002820191906000526020600020905b815481526020019060010190808311610710575b50505050509050919050565b6000806001600084815260200190815260200160002060009054906101000a900473ffffffffffffffffffffffffffffffffffffffff169050600073ffffffffffffffffffffffffffffffffffffffff168173ffffffffffffffffffffffffffffffffffffffff16141515156107a557600080fd5b80915050919050565b6107b88282610886565b5050565b6000600360008373ffffffffffffffffffffffffffffffffffffffff1673ffffffffffffffffffffffffffffffffffffffff168152602001908152602001600020805490509050919050565b803373ffffffffffffffffffffffffffffffffffffffff1661082982610730565b73ffffffffffffffffffffffffffffffffffffffff1614151561084b57600080fd5b610856338484610920565b505050565b6108653382610a69565b151561087057600080fd5b61088361087c82610730565b3383610920565b50565b600073ffffffffffffffffffffffffffffffffffffffff168273ffffffffffffffffffffffffffffffffffffffff16141515156108c257600080fd5b6108cc8282610aaa565b8173ffffffffffffffffffffffffffffffffffffffff1660007fddf252ad1be2c89b69c2b068fc378daa952ba7f163c4a11628f55a4df523b3ef836040518082815260200191505060405180910390a35050565b600073ffffffffffffffffffffffffffffffffffffffff168273ffffffffffffffffffffffffffffffffffffffff161415151561095c57600080fd5b61096581610730565b73ffffffffffffffffffffffffffffffffffffffff168273ffffffffffffffffffffffffffffffffffffffff161415151561099f57600080fd5b8273ffffffffffffffffffffffffffffffffffffffff166109bf82610730565b73ffffffffffffffffffffffffffffffffffffffff161415156109e157600080fd5b6109eb8382610c15565b6109f58382610cfe565b6109ff8282610aaa565b8173ffffffffffffffffffffffffffffffffffffffff168373ffffffffffffffffffffffffffffffffffffffff167fddf252ad1be2c89b69c2b068fc378daa952ba7f163c4a11628f55a4df523b3ef836040518082815260200191505060405180910390a3505050565b60008273ffffffffffffffffffffffffffffffffffffffff16610a8b83610656565b73ffffffffffffffffffffffffffffffffffffffff1614905092915050565b60008073ffffffffffffffffffffffffffffffffffffffff166001600084815260200190815260200160002060009054906101000a900473ffffffffffffffffffffffffffffffffffffffff1673ffffffffffffffffffffffffffffffffffffffff16141515610b1957600080fd5b826001600084815260200190815260200160002060006101000a81548173ffffffffffffffffffffffffffffffffffffffff021916908373ffffffffffffffffffffffffffffffffffffffff160217905550610b74836107bc565b9050600360008473ffffffffffffffffffffffffffffffffffffffff1673ffffffffffffffffffffffffffffffffffffffff1681526020019081526020016000208054806001018281610bc79190610fe5565b916000526020600020900160008490919091505550806004600084815260200190815260200160002081905550610c0a6001600054610f8690919063ffffffff16565b600081905550505050565b8173ffffffffffffffffffffffffffffffffffffffff16610c3582610730565b73ffffffffffffffffffffffffffffffffffffffff16141515610c5757600080fd5b60006002600083815260200190815260200160002060006101000a81548173ffffffffffffffffffffffffffffffffffffffff021916908373ffffffffffffffffffffffffffffffffffffffff16021790555060008273ffffffffffffffffffffffffffffffffffffffff167f8c5be1e5ebec7d5bd14f71427d1e84f3dd0314c0f7b2291e5b200ac8c7c3b925836040518082815260200191505060405180910390a35050565b60008060008473ffffffffffffffffffffffffffffffffffffffff16610d2385610730565b73ffffffffffffffffffffffffffffffffffffffff16141515610d4557600080fd5b60046000858152602001908152602001600020549250610d776001610d69876107bc565b610fa490919063ffffffff16565b9150600360008673ffffffffffffffffffffffffffffffffffffffff1673ffffffffffffffffffffffffffffffffffffffff16815260200190815260200160002082815481101515610dc557fe5b906000526020600020900154905060006001600086815260200190815260200160002060006101000a81548173ffffffffffffffffffffffffffffffffffffffff021916908373ffffffffffffffffffffffffffffffffffffffff16021790555080600360008773ffffffffffffffffffffffffffffffffffffffff1673ffffffffffffffffffffffffffffffffffffffff16815260200190815260200160002084815481101515610e7357fe5b9060005260206000209001819055506000600360008773ffffffffffffffffffffffffffffffffffffffff1673ffffffffffffffffffffffffffffffffffffffff16815260200190815260200160002083815481101515610ed057fe5b906000526020600020900181905550600360008673ffffffffffffffffffffffffffffffffffffffff1673ffffffffffffffffffffffffffffffffffffffff168152602001908152602001600020805480919060019003610f319190611011565b5060006004600086815260200190815260200160002081905550826004600083815260200190815260200160002081905550610f796001600054610fa490919063ffffffff16565b6000819055505050505050565b6000808284019050838110151515610f9a57fe5b8091505092915050565b6000828211151515610fb257fe5b818303905092915050565b602060405190810160405280600081525090565b602060405190810160405280600081525090565b81548183558181151161100c5781836000526020600020918201910161100b919061103d565b5b505050565b81548183558181151161103857818360005260206000209182019101611037919061103d565b5b505050565b61105f91905b8082111561105b576000816000905550600101611043565b5090565b905600a165627a7a72305820a4b35f11c1b5f6c5d0eb3f41a274652f3ed3922d5b6bef184e3253a2e8cb35e10029",
  "source": "pragma solidity ^0.4.19;\nimport 'zeppelin-solidity/contracts/token/ERC721/ERC721Token.sol';\n\ncontract Token is ERC721Token {\n  string constant private tokenName = \"My ERC721 Token\";\n  string constant private tokenSymbol = \"MET\";\n  /* event StartCustody(address indexed _to, uint256 indexed _tokenId); */\n\n  function name() public constant returns (string) {\n    return tokenName;\n  }\n\n  function startCustody(address _target, uint256 _tokenId) public {\n    _mint(_target, _tokenId);\n    /* StartCustody(msg.sender, _tokenId); */\n  }\n\n  function approve(bool approved, uint256 _tokenId) public onlyOwnerOf(_tokenId) {\n    require(approved);\n  }\n}\n",
  "sourcePath": "/Users/gcperrin/dev/eth_denver/eth_denver-contracts/contracts/Token.sol",
  "compiler": {
    "name": "solc",
    "version": "0.4.19+commit.c4cbbb05.Emscripten.clang"
  },
  "schemaVersion": "1.0.1",
  "updatedAt": "2018-02-17T07:50:35.223Z"
}